S0190000414145433031382E3238302E3030325F462E737265633B
S11300000C943D000C945A000C945A000C94300546
S11300100C94BB050C945A000C945A000C942A0BB3
S11300200C945A000C945A000C945A000C945A00E4
S11300300C945A000C945A000C94B10A0C945A0073
S11300400C945A000C945A000C945A000C945A00C4
S11300500C945A000C945A000C945A000C945A00B4
S11300600C941C080C945A007F03720286029F02AF
S1130070DC02E902120320033C0311241FBECFEF6C
S1130080D4E0DEBFCDBF11E0A0E0B1E0E8EFF6E1DF
S113009002C005900D92AC31B107D9F722E0ACE172
S11300A0B1E001C01D92A337B207E1F70E94460AEE
S11300B00C947A0B0C940000CF93DF93CDB7DEB78A
S11300C010922A0110922B010000DF91CF91089524
S11300D0CF93DF9300D0CDB7DEB789836A8389815C
S11300E0882379F083E080932A0110922B018BE21C
S11300F090E02BE230E0F90120812068FC012083AC
S113010018C08A8180932B0182E080932A018BE2BC
S113011090E02BE230E0F90120812F77FC0120836D
S113012085E290E025E230E0F90120812160FC01C4
S1130130208300000F900F90DF91CF910895CF930B
S1130140DF93CDB7DEB780912A01DF91CF91089577
S1130150CF93DF93CDB7DEB780911C01882F90E059
S113016081309105A1F18230910509F44FC0892BAA
S113017009F059C080912B01882351F48BE290E05F
S11301802BE230E0F90120812F7DFC0120834BC05C
S113019080912B01843650F08BE290E02BE230E02A
S11301A0F90120812062FC0120833DC08BE290E0B4
S11301B02BE230E0F90120812062FC012083809150
S11301C02B0180931D0181E080931C012CC0809140
S11301D01D01882331F080911D01815080931D0100
S11301E022C08BE290E02BE230E0F90120812F7DE8
S11301F0FC01208380912B0194E6F92FF81B8F2FAB
S113020080931D0182E080931C010DC080911D012B
S1130210882331F080911D01815080931D0103C01A
S113022010921C010000DF91CF910895CF93DF93CA
S1130230CDB7DEB710922F0184E68093310184E6B6
S11302408093300188E690E028E630E0F9012081CF
S11302502360FC0120838BE690E02BE630E0F9017B
S11302602081206CFC0120838CE690E02CE630E0B9
S1130270F90120812160FC0120830000DF91CF91EE
S11302800895CF93DF93CDB7DEB70E944D018093DD
S113029038010000DF91CF910895CF93DF931F922F
S11302A0CDB7DEB786E290E0FC018081882F90E034
S11302B081709927892B11F08FEF1BC089E290E0A0
S11302C0FC0180818770898389E290E0FC01808150
S11302D0882F90E08071992795958795982F89812B
S11302E0892B89839FE08981F92FF81B8F2F8983BC
S11302F089810F90DF91CF910895CF93DF931F925F
S1130300CDB7DEB7898310923B010E94E4011092BD
S11303103C018BE290E02BE230E0F90120812F7761
S1130320FC01208385E290E025E230E0F9012081A0
S11303302160FC012083898180932F0100000F90AC
S1130340DF91CF910895CF93DF931F92CDB7DEB79E
S1130350898381E080933B010E94E40110923C0177
S11303608BE290E02BE230E0F90120812F77FC0151
S1130370208385E290E025E230E0F90120812E7FA0
S1130380FC012083898180932F0100000F90DF916D
S1130390CF910895CF93DF93CDB7DEB710923D018F
S11303A081E0809337010000DF91CF910895CF93CE
S11303B0DF93CDB7DEB70E94E40181E080933C0176
S11303C00000DF91CF910895CF93DF93CDB7DEB7CF
S11303D010923301109234011092350110923601BB
S11303E00000DF91CF910895CF93DF93CDB7DEB7AF
S11303F080912C01DF91CF910895CF93DF931F92C9
S1130400CDB7DEB789830E948D03882309F040C0ED
S11304108981803119F50E94F7098230F9F489E263
S113042090E0FC01808188236CF48BE290E02BE265
S113043030E0F90120812F77FC01208382E380934F
S11304402F0127C08BE290E02BE230E0F9012081FC
S11304502068FC01208310922F011BC00E944D01D3
S11304608F3F31F00E944D01982F8981981731F404
S113047081E080932C01109232010BC0898180931A
S1130480390181E08093320181E080933A0101C017
S113049000000F90DF91CF9108958F929F92AF92B9
S11304A0BF92CF92DF92EF92FF920F931F93CF935D
S11304B0DF93CDB7DEB780913201882F90E0092E0B
S11304C0000CAA0BBB0B40E050E028E030E0841B9A
S11304D0950B2817390708F4F3C08C5C9F4FFC0177
S11304E00C945D0B80E197E290932E0180932D0193
S11304F00E94F709823019F081E00E943D0982E0F0
S11305008093320183E080932C01DAC00E94EE09CB
S1130510982F81E08927882339F00E94F7098330D6
S113052019F083E08093320180912D0190912E0186
S1130530892B09F0BCC088E080933201B8C00E94C6
S11305404D018093380180902C0190902D01A09052
S11305502E01B0902F01C0903001D0903101E09075
S11305603201F09033010091340110913501209152
S11305703601309137014091380150913901609131
S11305803A0170913B0180913C0190913D010E94A0
S11305909603813021F482E30E94A30103C082E325
S11305A00E947D018AEF90E090931F0180931E01C9
S11305B084E08093320184C080911E0190911F01D8
S11305C0892B09F076C00E94CA0185E0809332012C
S11305D070C09091370181E08927882349F086E033
S11305E08093320184EF91E090931F0180931E0168
S11305F080912D0190912E01892B19F488E080932C
S1130600320180912D0190912E0180349F4108F098
S113061052C080913D01882309F04DC088E0809349
S1130620320149C080911E0190911F01892B09F06C
S113063044C080E00E943D0987E0809332013DC0C0
S11306400E94EE09982F81E08927882359F00E949F
S1130650F709833039F081E080932C011092320144
S113066010923A0180912D0190912E01892B39F538
S113067088E08093320123C08BE290E02BE230E0EB
S1130680F90120812068FC01208310922F018091C0
S11306903D01882321F482E080932C0103C084E08F
S11306A080932C011092320110923A0109C000008B
S11306B007C0000005C0000003C0000001C0000026
S11306C080912D0190912E01892B49F080912D016B
S11306D090912E01019790932E0180932D0180918A
S11306E01E0190911F01892B59F080911E01909158
S11306F01F01019790931F0180931E0101C0000008
S1130700DF91CF911F910F91FF90EF90DF90CF90E9
S1130710BF90AF909F908F900895CF93DF93CDB704
S1130720DEB780913A01DF91CF9108958F929F9225
S1130730AF92BF92CF92DF92EF92FF920F931F93EB
S1130740CF93DF93CDB7DEB763970FB6F894DEBFD0
S11307500FBECDBF8A829B82AC82BD82CE82DF82F5
S1130760E886F9860A871B872C873D874E875F8733
S1130770688B798B8A8B9B8B19829E858F85292F19
S1130780281B822F8983898188233CF48981893FAE
S113079014F481E008C080E006C08981883014F038
S11307A080E001C081E063960FB6F894DEBF0FBE0F
S11307B0CDBFDF91CF911F910F91FF90EF90DF900C
S11307C0CF90BF90AF909F908F900895CF93DF9379
S11307D0CDB7DEB780912001882F90E0813091055C
S11307E0A1F18230910509F44FC0892B09F059C059
S11307F080912F01882351F48BE290E02BE230E0CA
S1130800F90120812F7BFC0120834BC080912F01B3
S1130810843650F08BE290E02BE230E0F901208145
S11308202064FC0120833DC08BE290E02BE230E0A9
S1130830F90120812064FC01208380912F018093A1
S1130840210181E0809320012CC080912101882323
S113085031F08091210181508093210122C08BE2EB
S113086090E02BE230E0F90120812F7BFC01208312
S113087080912F0194E6F92FF81B8F2F809321018B
S113088082E0809320010DC080912101882331F002
S11308908091210181508093210103C01092200195
S11308A00000DF91CF910895CF93DF93CDB7DEB7EA
S11308B080912201882F90E081309105A1F182304E
S11308C0910509F44FC0892B09F059C0809130017A
S11308D0882351F485E290E025E230E0F90120819B
S11308E02B7FFC0120834BC080913001843650F073
S11308F085E290E025E230E0F90120812460FC01EA
S113090020833DC085E290E025E230E0F9012081BA
S11309102460FC012083809130018093230181E0D5
S1130920809322012CC080912301882331F080918F
S1130930230181508093230122C085E290E025E2C7
S113094030E0F90120812B7FFC012083809130016C
S113095094E6F92FF81B8F2F8093230182E0809374
S113096022010DC080912301882331F0809123015D
S113097081508093230103C0109222010000DF9173
S1130980CF910895CF93DF93CDB7DEB78091240143
S1130990882F90E081309105A1F18230910509F40E
S11309A04FC0892B09F059C080913101882351F43B
S11309B08BE290E02BE230E0F9012081277FFC01FB
S11309C020834BC080913101843650F08BE290E05B
S11309D02BE230E0F90120812860FC0120833DC036
S11309E08BE290E02BE230E0F90120812860FC01E9
S11309F02083809131018093250181E0809324013B
S1130A002CC080912501882331F0809125018150EB
S1130A108093250122C08BE290E02BE230E0F901C3
S1130A202081277FFC0120838091310194E6F92FF6
S1130A30F81B8F2F8093250182E0809324010DC041
S1130A4080912501882331F0809125018150809384
S1130A50250103C0109224010000DF91CF91089575
S1130A601F920F9200905F000F9211242F933F93D7
S1130A704F935F936F937F938F939F93AF93BF93A2
S1130A80EF93FF93CF93DF93CDB7DEB7809133011C
S1130A9090913401A0913501B09136010196A11DC8
S1130AA0B11D8093330190933401A0933501B09329
S1130AB0360180913C01882309F448C080913301B8
S1130AC090913401A0913501B0913601853691059C
S1130AD0A105B105B8F080913B01882399F48BE21C
S1130AE090E02BE230E0F90120812068FC012083B2
S1130AF010922F011092370110923C010E944D0177
S1130B00809339018091330190913401A091350192
S1130B10B091360185369105A105B105B8F08091F3
S1130B203B01813099F48BE290E02BE230E0F90153
S1130B3020812068FC01208310922F01109237013C
S1130B4010923C010E944D01809339010000DF9115
S1130B50CF91FF91EF91BF91AF919F918F917F9131
S1130B606F915F914F913F912F910F9000925F0091
S1130B700F901F9018951F920F9200905F000F9294
S1130B8011242F933F934F935F936F937F938F938E
S1130B909F93AF93BF93EF93FF93CF93DF931F92F2
S1130BA0CDB7DEB786E290E0FC018081882F90E02B
S1130BB081709927892BC9F5809133019091340173
S1130BC0A0913501B09136018D389A40A105B10547
S1130BD070F180913701882351F180913D018F5F3D
S1130BE080933D0189E290E0FC01808187708983D4
S1130BF089E290E0FC018081882F90E08071992740
S1130C0095958795982F8981892B89839FE0898180
S1130C10F92FF81B8F2F89839091390189819817B7
S1130C2031F40E94D701000002C0000001C000009E
S1130C300F90DF91CF91FF91EF91BF91AF919F9171
S1130C408F917F916F915F914F913F912F910F9071
S1130C5000925F000F901F901895CF93DF93CDB74C
S1130C60DEB787E290E027E230E0F9012081277FB8
S1130C70FC01208387E290E027E230E0F901208143
S1130C802460FC01208388E290E028E230E0F9014E
S1130C9020812B7FFC01208384E290E024E230E079
S1130CA0F90120812460FC01208384E290E024E2A5
S1130CB030E0F90120812260FC01208384E290E08D
S1130CC024E230E0F90120812160FC01208385E2E7
S1130CD090E025E230E0F90120812160FC012083CD
S1130CE085E290E025E230E0F90120812D7FFC01CE
S1130CF0208385E290E025E230E0F90120812B7F1A
S1130D00FC0120838AE290E02AE230E0F9012081AC
S1130D102068FC0120838AE290E02AE230E0F901B5
S1130D2020812064FC0120838AE290E02AE230E002
S1130D30F90120812062FC0120838AE290E02AE20A
S1130D4030E0F90120812860FC0120838BE290E0EF
S1130D502BE230E0F90120812068FC0120838BE242
S1130D6090E02BE230E0F90120812F7BFC0120830D
S1130D708BE290E02BE230E0F90120812F7DFC0131
S1130D8020838BE290E02BE230E0F9012081277F81
S1130D90FC0120830000DF91CF910895CF93DF936E
S1130DA0CDB7DEB788EB90E028E4FC0120838CEB20
S1130DB090E0FC0110828AEB90E020E7FC012083A4
S1130DC089EB90E0FC0110828CEB90E025ECFC01B7
S1130DD020830000DF91CF910895CF93DF9300D05B
S1130DE000D01F92CDB7DEB78B837D836C831982CD
S1130DF01A820FC08A81882F90E02C813D81820F56
S1130E00931FFC0180819981890F89838A818F5F77
S1130E108A839A818B81981768F389810F900F9048
S1130E200F900F900F90DF91CF910895CF93DF93A0
S1130E30CDB7DEB727970FB6F894DEBF0FBECDBF90
S1130E408B836C834D833F832E83198246E950E064
S1130E5060E070E080E491E00E946C0B8C818093F0
S1130E6040018B81809341018D81282F30E08E8158
S1130E709F81A901BC0182E491E00E94630B1A8264
S1130E800DC08A81882F90E0805C9E4FFC01808198
S1130E909981890F89838A818F5F8A838A81282F28
S1130EA030E08D81882F90E00296281739074CF3A3
S1130EB08981819589838D81882F90E00296805C59
S1130EC09E4F2981FC012083000027960FB6F894D9
S1130ED0DEBF0FBECDBFDF91CF910895CF93DF93D7
S1130EE000D01F92CDB7DEB719821A8280914001DB
S1130EF08B8380913F0160E471E00E94ED068823BA
S1130F0019F08981826089838981882341F026EDE3
S1130F1031E04A8169818B810E94160787C08B81E9
S1130F20882F90E08230910509F43EC0833091050A
S1130F302CF4009779F00197F1F06CC0843091059E
S1130F4009F453C0843091050CF442C0059709F4A8
S1130F5059C060C080913F01823021F08981806155
S1130F6089835DC060E071E086ED91E00E94730BBF
S1130F7080E88A8354C080913F01823021F08981C6
S1130F80806189834CC00E949F008093D6010E9497
S1130F90F7098093D7010E94F4018093D80110923D
S1130FA0D90184E08A833BC080913F01843021F0E1
S1130FB089818061898333C02091420190914101EC
S1130FC081E0992309F480E0622F0E94680027C021
S1130FD080913F01833021F08981806189831FC022
S1130FE0809141010E943D091AC080913F018430E3
S1130FF021F089818061898312C0809141010E941E
S1131000FD010DC080913F01853041F089818061EF
S1131010898305C089818460898301C0000026ED2D
S113102031E04A8169818B810E9416070F900F90ED
S11310300F90DF91CF9108951F920F9200905F005F
S11310400F9211242F933F934F935F936F937F934A
S11310508F939F93AF93BF93EF93FF93CF93DF93BC
S1131060CDB7DEB789EB90E0FC018081882F90E05A
S1131070803A910509F451C0813A91058CF4803687
S1131080910529F18136910524F4892B09F487C04F
S11310908CC088369105D9F08038910541F185C01E
S11310A0883B910509F459C0893B91053CF4883A81
S11310B09105D9F1803B9105C1F177C0803C910540
S11310C009F461C0883C910509F463C06EC01092B4
S11310D03F0146E950E060E070E080E491E00E9466
S11310E06C0B8CEB90E025ECFC01208363C08091B9
S11310F03F0191E0980F90933F01882F90E0805C2E
S11311009E4F2BEB30E0F9012081FC0120838CEB16
S113111090E025ECFC0120834DC00E946E078CEB0F
S113112090E025ECFC01208345C010923E018BEB3E
S113113090E020913E0131E0320F30933E01222FA6
S113114030E0205C3E4FF9012081FC0120838CEBD0
S113115090E025ECFC0120832DC08BEB90E02091E6
S11311603E0131E0320F30933E01222F30E0205C0B
S11311703E4FF9012081FC0120838CEB90E025ECAB
S1131180FC01208317C08CEB90E025ECFC0120834C
S113119011C08CEB90E025ECFC0120830BC08CEBA0
S11311A090E025EDFC01208305C08CEB90E025EC5C
S11311B0FC012083DF91CF91FF91EF91BF91AF911B
S11311C09F918F917F916F915F914F913F912F915B
S11311D00F9000925F000F901F901895CF93DF93AC
S11311E0CDB7DEB780E890E020E830E0F901208157
S11311F0236CFC01208381E890E021E830E0F901D0
S113120020812360FC01208388E890E0FC011182A6
S113121010820000DF91CF910895CF93DF93CDB773
S1131220DEB786E290E0FC018081882F90E0887030
S11312309927892B11F080E001C081E0DF91CF91E3
S11312400895CF93DF93CDB7DEB70E94EE080E94D6
S11312500D0980936D0280916D0280936E0210924D
S11312606F02109271021092700210926C0210922E
S113127072020000DF91CF910895CF93DF931F9204
S1131280CDB7DEB78983898180936E0281E0809334
S11312906F0281E08093720200000F90DF91CF9182
S11312A00895CF93DF93CDB7DEB780917202882F74
S11312B090E082309105E9F08330910534F4009791
S11312C009F488C0019759F075C084309105E1F1A3
S11312D08430910564F1059709F47CC06BC080EDFE
S11312E097E0909371028093700282E0809372027F
S11312F061C00E940D0980936D0290916D028091EE
S11313006E02981721F083E08093720253C080919B
S11313106E02813021F482E080936C0203C081E08C
S113132080936C0210926F021092720243C08091FB
S11313306E02813019F40E94160A02C00E942E0A1D
S113134084E08093720236C08091700290917102A1
S1131350873D964060F50E940D0980936D0290913F
S11313606D0280916E02981789F40E94000A8091A0
S11313706E02813021F482E080936C0203C081E02C
S113138080936C0210926F0210927202809170022C
S113139090917102892B69F40E94000A83E0809382
S11313A06C0210926F0285E08093720202C000000A
S11313B001C000008091700290917102892B59F054
S11313C080917002909171020197909371028093C1
S11313D0700201C00000DF91CF910895CF93DF9395
S11313E0CDB7DEB780916F02DF91CF910895CF938F
S11313F0DF93CDB7DEB780916C02DF91CF91089572
S1131400CF93DF93CDB7DEB788E890E0FC0111827B
S1131410108288E290E028E230E0F90120812B7FFD
S1131420FC0120830000DF91CF910895CF93DF93D7
S1131430CDB7DEB788E890E022E330E0FC013183E9
S1131440208388E290E028E230E0F90120812460E2
S1131450FC0120830000DF91CF910895CF93DF93A7
S1131460CDB7DEB788E890E027E830E0FC013183AF
S1131470208388E290E028E230E0F90120812460B2
S1131480FC0120830000DF91CF910895CF93DF9377
S1131490CDB7DEB70E946C0A0E942D060E94210976
S11314A00E945C000E9416010E94810A0E94CE06DE
S11314B0789464E681E00E94680081E00E943D091E
S11314C068E873E180E090E00E94FF0A80E00E94F7
S11314D03D090E944101FFCFCF93DF93CDB7DEB723
S11314E085E590E0FC01108281E690E020E8FC01B3
S11314F0208381E690E0FC0110820000DF91CF910F
S11315000895CF93DF93CDB7DEB784E490E022E073
S1131510FC01208385E490E023E0FC01208387E440
S113152090E02CE7FC0120838EE690E022E0FC01B1
S1131530208380EB90E022E0FC01208381EB90E0AB
S113154022E0FC01208383EB90E020E5FC01208372
S113155080E790E022E0FC0120830000DF91CF913E
S113156008951F920F9200905F000F9211242F9301
S11315703F934F935F936F937F938F939F93AF9317
S1131580BF93EF93FF93CF93DF93CDB7DEB78091F3
S1131590260190912701A0912801B0912901892B5E
S11315A08A2B8B2B99F08091260190912701A09191
S11315B02801B09129010197A109B109809326015D
S11315C090932701A0932801B09329010E94510907
S11315D00E944D020000DF91CF91FF91EF91BF91E6
S11315E0AF919F918F917F916F915F914F913F91B7
S11315F02F910F9000925F000F901F901895CF933A
S1131600DF9300D000D0CDB7DEB769837A838B83B4
S11316109C8389819A81AB81BC81809326019093BC
S11316202701A0932801B09329018091260190916C
S11316302701A0912801B0912901892B8A2B8B2B9A
S113164009F0F3CF00000F900F900F900F90DF91EF
S1131650CF9108951F920F9200905F000F92112472
S11316602F933F934F935F936F937F938F939F93A6
S1131670AF93BF93EF93FF93CF93DF93CDB7DEB7D1
S11316800E94E6030E9454040E94C2040E94A8001F
S11316900000DF91CF91FF91EF91BF91AF919F91A6
S11316A08F917F916F915F914F913F912F910F9007
S11316B000925F000F901F901895EE0FFF1F05908A
S11316C0F491E02D0994FB01DC0102C001900D921C
S11316D041505040D8F70895DC0101C06D9341504A
S11316E05040E0F70895FB01DC0101900D920020C9
S10B16F0E1F70895F894FFCF1F
S11316F8456C7661582032206361726F7573656C2E
S10F170820312E302E30007830300000EC
S9030000FC
