:100000000C9444000C9461000C9461000C94CF0596
:100010000C9458060C9461000C9461000C94D80C5C
:100020000C9461000C9461000C9461000C946100CC
:100030000C9461000C9461000C94880C0C94610089
:100040000C9461000C9461000C9461000C946100AC
:100050000C9461000C9461000C9461000C9461009C
:100060000C94B9080C9461004604310345035E0307
:10007000A303B003D903E70303049D0B250AF00A89
:100080000E0B280B4A0B9D0B11241FBECFEFD4E0A3
:10009000DEBFCDBF11E0A0E0B1E0E4E5FAE102C0CF
:1000A00005900D92AC31B107D9F722E0ACE1B1E097
:1000B00001C01D92AE37B207E1F70E94270C0C94E5
:1000C000280D0C940000CF93DF93CDB7DEB71092CC
:1000D0002E0110922F010000DF91CF910895CF9350
:1000E000DF9300D0CDB7DEB789836A838981882307
:1000F00079F083E080932E0110922F018BE290E043
:100100002BE230E0F90120812068FC01208318C037
:100110008A8180932F0182E080932E018BE290E010
:100120002BE230E0F90120812F77FC01208385E26A
:1001300090E025E230E0F90120812160FC0120837C
:1001400000000F900F90DF91CF910895CF93DF9330
:10015000CDB7DEB780912E01DF91CF910895CF9377
:10016000DF93CDB7DEB780911C01882F90E08130FE
:100170009105A1F18230910509F44FC0892B09F056
:1001800059C080912F01882351F48BE290E02BE23B
:1001900030E0F90120812F7DFC0120834BC080914C
:1001A0002F01843650F08BE290E02BE230E0F90131
:1001B00020812062FC0120833DC08BE290E02BE295
:1001C00030E0F90120812062FC01208380912F0121
:1001D00080931D0181E080931C012CC080911D0142
:1001E000882331F080911D01815080931D0122C030
:1001F0008BE290E02BE230E0F90120812F7DFC01C1
:10020000208380912F0194E6F92FF81B8F2F809384
:100210001D0182E080931C010DC080911D01882387
:1002200031F080911D01815080931D0103C0109217
:100230001C010000DF91CF910895CF93DF93CDB7DC
:10024000DEB71092330184E68093360184E6809312
:10025000350110923C0110923D0110923E01109226
:100260003F018CE38093340188E690E028E630E09B
:10027000F90120812360FC0120838BE690E02BE6CE
:1002800030E0F9012081206CFC0120838CE690E0B5
:100290002CE630E0F90120812160FC012083000080
:1002A000DF91CF910895CF93DF93CDB7DEB70E9452
:1002B0000D02809341010000DF91CF910895EF92EC
:1002C000FF920F931F93CF93DF9300D000D0CDB751
:1002D000DEB719821A821B821C8280911E019091C6
:1002E0001F010A9770F480913301882351F08091A7
:1002F0001E0190911F01019690931F0180931E0192
:1003000080C080913301882309F47BC0209138019B
:100310003091390140913A0150913B0180913C016B
:1003200090913D01A0913E01B0913F0179018A0178
:10033000E81AF90A0A0B1B0BD801C70189839A83B3
:10034000AB83BC838091380190913901A0913A012F
:10035000B0913B0180933C0190933D01A0933E01FD
:10036000B0933F0180914701823028F189819A81C1
:10037000AB81BC8186359105A105B10548F080911E
:1003800033018B3028F08091330181508093330109
:1003900089819A81AB81BC818B349105A105B1051E
:1003A00060F580913301843640F5809133018F5F91
:1003B0008093330122C089819A81AB81BC8184976B
:1003C000A105B10548F080913301863028F0809175
:1003D000330181508093330189819A81AB81BC8143
:1003E0008397A105B10548F480913301843628F440
:1003F000809133018F5F8093330110921F0110921F
:100400001E0100000F900F900F900F90DF91CF9181
:100410001F910F91FF90EF900895CF93DF931F925C
:10042000CDB7DEB786E290E0FC018081882F90E0B6
:1004300081709927892B11F08FEF1BC089E290E022
:10044000FC0180818770898389E290E0FC018081D2
:10045000882F90E08071992795958795982F8981AD
:10046000892B89839FE08981F92FF81B8F2F89833E
:1004700089810F90DF91CF910895CF93DF931F92E1
:10048000CDB7DEB78983109244010E94A402109276
:1004900045018BE290E02BE230E0F90120812F77DB
:1004A000FC01208385E290E025E230E0F901208123
:1004B0002160FC01208389818093330100000F902B
:1004C000DF91CF910895CF93DF931F92CDB7DEB721
:1004D000898381E0809344010E94A4021092450127
:1004E0008BE290E02BE230E0F90120812F77FC01D4
:1004F000208385E290E025E230E0F90120812E7F23
:10050000FC01208389818093330100000F90DF91EB
:10051000CF910895CF93DF93CDB7DEB71092460108
:1005200081E0809340010000DF91CF910895CF9347
:10053000DF93CDB7DEB70E94A40281E0809345012E
:100540000000DF91CF910895CF93DF93CDB7DEB751
:10055000109238011092390110923A0110923B0129
:1005600010923C0110923D0110923E0110923F0109
:100570000000DF91CF910895CF93DF93CDB7DEB721
:1005800080913001DF91CF910895CF93DF931F9237
:10059000CDB7DEB789830E944A04882309F041C0A1
:1005A0008981803121F50E94AA0B823001F589E210
:1005B00090E0FC018081882374F48BE290E02BE2D0
:1005C00030E0F90120812F77FC01208380913401F4
:1005D0008093330127C08BE290E02BE230E0F901F9
:1005E00020812068FC012083109233011BC00E94EF
:1005F0000D028F3F31F00E940D02982F89819817CC
:1006000031F481E080933001109237010BC0898171
:100610008093420181E08093370181E08093430120
:1006200001C000000F90DF91CF910895CF93DF9329
:10063000CDB7DEB780913701882F90E0092E000CEE
:10064000AA0BBB0B40E050E028E030E0841B950B88
:100650002817390708F4FBC08C5C9F4FFC010C94F1
:100660000B0D88E99AE390933201809331010E9447
:10067000AA0B823019F081E00E94F10982E0809398
:10068000370183E080933001E2C00E94A10B982FD4
:1006900081E08927882339F00E94AA0B833019F062
:1006A00083E0809337018091310190913201892B51
:1006B00009F0C4C088E080933701C0C00E940D02D9
:1006C000809341012DB73EB7285131090FB6F894F8
:1006D0003EBF0FBE2DBF8DB79EB7019628E1E0E368
:1006E000F1E0DC0101900D922A95E1F70E9453049C
:1006F000EDB7FEB778960FB6F894DEBF0FBECDBF4C
:10070000813061F480914701823020F08CE30E94B7
:1007100063020FC082E30E9463020BC08091470115
:10072000823020F08CE30E943D0203C082E30E94ED
:100730003D028AEF90E0909321018093200184E0B4
:100740008093370184C08091200190912101892BF1
:1007500009F076C00E948A0285E08093370170C05C
:100760009091400181E08927882349F086E08093B9
:10077000370184EF91E090932101809320018091D3
:10078000310190913201892B19F488E0809337016F
:1007900080913101909132018031974208F052C02E
:1007A00080914601882309F04DC088E0809337018D
:1007B00049C08091200190912101892B09F044C00A
:1007C00080E00E94F10987E0809337013DC00E94DC
:1007D000A10B982F81E08927882359F00E94AA0B4A
:1007E000833039F081E0809330011092370110920C
:1007F00043018091310190913201892B39F588E0D4
:100800008093370123C08BE290E02BE230E0F901C6
:1008100020812068FC0120831092330180914601E1
:10082000882321F482E08093300103C084E0809328
:100830003001109237011092430109C0000007C037
:10084000000005C0000003C0000001C0000080914E
:10085000310190913201892B49F0809131019091C1
:1008600032010197909332018093310180912001F0
:1008700090912101892B59F08091200190912101C3
:100880000197909321018093200101C00000DF9126
:10089000CF910895CF93DF93CDB7DEB78091430119
:1008A000DF91CF910895CF93DF931F92CDB7DEB73D
:1008B00019829F89888D292F281B822F89838981FE
:1008C000882344F4988D8F89292F281B822F8093A9
:1008D000470107C09F89888D292F281B822F80936D
:1008E0004701898188233CF48981893F14F481E0A0
:1008F00008C080E006C08981883014F080E001C023
:1009000081E00F90DF91CF910895CF93DF93CDB722
:10091000DEB780912201882F90E081309105A1F10E
:100920008230910509F44FC0892B09F059C080919C
:100930003301882351F48BE290E02BE230E0F9019F
:1009400020812F7BFC0120834BC0809133018436B2
:1009500050F08BE290E02BE230E0F901208120643E
:10096000FC0120833DC08BE290E02BE230E0F901F6
:1009700020812064FC012083809133018093230136
:1009800081E0809322012CC080912301882331F0E3
:100990008091230181508093230122C08BE290E05B
:1009A0002BE230E0F90120812F7BFC012083809134
:1009B000330194E6F92FF81B8F2F8093230182E0F7
:1009C000809322010DC080912301882331F0809112
:1009D000230181508093230103C010922201000063
:1009E000DF91CF910895CF93DF93CDB7DEB780919C
:1009F0002401882F90E081309105A1F1823091058A
:100A000009F44FC0892B09F059C080913501882322
:100A100051F485E290E025E230E0F90120812B7F5E
:100A2000FC0120834BC080913501843650F085E273
:100A300090E025E230E0F90120812460FC01208370
:100A40003DC085E290E025E230E0F901208124609C
:100A5000FC012083809135018093250181E0809302
:100A600024012CC080912501882331F0809125013B
:100A700081508093250122C085E290E025E230E09C
:100A8000F90120812B7FFC0120838091350194E6C0
:100A9000F92FF81B8F2F8093250182E0809324018A
:100AA0000DC080912501882331F08091250181506E
:100AB0008093250103C0109224010000DF91CF91A3
:100AC0000895CF93DF93CDB7DEB780912601882FAD
:100AD00090E081309105A1F18230910509F44FC079
:100AE000892B09F059C080913601882351F48BE29B
:100AF00090E02BE230E0F9012081277FFC01208388
:100B00004BC080913601843650F08BE290E02BE2AE
:100B100030E0F90120812860FC0120833DC08BE298
:100B200090E02BE230E0F90120812860FC01208375
:100B3000809136018093270181E0809326012CC0AB
:100B400080912701882331F0809127018150809383
:100B5000270122C08BE290E02BE230E0F9012081F6
:100B6000277FFC0120838091360194E6F92FF81B42
:100B70008F2F8093270182E0809326010DC0809102
:100B80002701882331F0809127018150809327012C
:100B900003C0109226010000DF91CF9108951F92AB
:100BA0000F9200905F000F9211242F933F934F9369
:100BB0005F936F937F938F939F93AF93BF93EF93C5
:100BC000FF93CF93DF93CDB7DEB78091380190913B
:100BD0003901A0913A01B0913B010196A11DB11DCF
:100BE0008093380190933901A0933A01B0933B016F
:100BF00080914501882309F446C080913801909185
:100C00003901A0913A01B0913B018E97A105B10540
:100C1000B8F080914401882399F48BE290E02BE2B4
:100C200030E0F90120812068FC012083109233011B
:100C300010924001109245010E940D0280934201E2
:100C40008091380190913901A0913A01B0913B0116
:100C50008E97A105B105B8F080914401813099F4D7
:100C60008BE290E02BE230E0F90120812068FC016A
:100C700020831092330110924001109245010E948E
:100C80000D02809342010000DF91CF91FF91EF911F
:100C9000BF91AF919F918F917F916F915F914F9194
:100CA0003F912F910F9000925F000F901F90189529
:100CB0001F920F9200905F000F9211242F933F9389
:100CC0004F935F936F937F938F939F93AF93BF9354
:100CD000EF93FF93CF93DF931F92CDB7DEB786E2FA
:100CE00090E0FC018081882F90E081709927892B0A
:100CF000C9F58091380190913901A0913A01B091E4
:100D00003B018D389A40A105B10570F180914001F9
:100D1000882351F1809146018F5F8093460189E2DB
:100D200090E0FC0180818770898389E290E0FC017A
:100D30008081882F90E08071992795958795982FCD
:100D40008981892B89839FE08981F92FF81B8F2F57
:100D50008983909142018981981731F40E9497020A
:100D6000000002C0000001C000000F90DF91CF9191
:100D7000FF91EF91BF91AF919F918F917F916F9173
:100D80005F914F913F912F910F9000925F000F90D4
:100D90001F901895CF93DF93CDB7DEB787E290E031
:100DA00027E230E0F9012081277FFC01208387E2E0
:100DB00090E027E230E0F90120812460FC012083EB
:100DC00088E290E028E230E0F90120812B7FFC01ED
:100DD000208384E290E024E230E0F9012081246065
:100DE000FC01208384E290E024E230E0F9012081DC
:100DF0002260FC01208384E290E024E230E0F901EB
:100E000020812160FC01208385E290E025E230E032
:100E1000F90120812160FC01208385E290E025E238
:100E200030E0F90120812D7FFC01208385E290E0F4
:100E300025E230E0F90120812B7FFC0120838AE24A
:100E400090E02AE230E0F90120812068FC01208353
:100E50008AE290E02AE230E0F90120812064FC017E
:100E600020838AE290E02AE230E0F90120812062CA
:100E7000FC0120838AE290E02AE230E0F90120813F
:100E80002860FC0120838BE290E02BE230E0F90146
:100E900020812068FC0120838BE290E02BE230E08F
:100EA000F90120812F7BFC0120838BE290E02BE273
:100EB00030E0F90120812F7DFC0120838BE290E05E
:100EC0002BE230E0F9012081277FFC012083000024
:100ED000DF91CF910895CF93DF93CDB7DEB788EB45
:100EE00090E028E4FC0120838CEB90E0FC01108270
:100EF0008AEB90E020E7FC01208389EB90E0FC0185
:100F000010828CEB90E025ECFC0120830000DF9147
:100F1000CF910895CF93DF9300D000D01F92CDB72B
:100F2000DEB78B837D836C8319821A820FC08A811E
:100F3000882F90E02C813D81820F931FFC018081DE
:100F40009981890F89838A818F5F8A839A818B81B6
:100F5000981768F389810F900F900F900F900F9062
:100F6000DF91CF910895CF93DF93CDB7DEB7279769
:100F70000FB6F894DEBF0FBECDBF8B836C834D835D
:100F80003F832E83198246E950E060E070E08AE4F6
:100F900091E00E941A0D8C8180934A018B8180938D
:100FA0004B018D81282F30E08E819F81A901BC01EA
:100FB0008CE491E00E94110D1A820DC08A81882F65
:100FC00090E0865B9E4FFC0180819981890F898327
:100FD0008A818F5F8A838A81282F30E08D81882FD4
:100FE00090E00296281739074CF38981819589830F
:100FF0008D81882F90E00296865B9E4F2981FC01AF
:101000002083000027960FB6F894DEBF0FBECDBF39
:10101000DF91CF910895CF93DF9300D01F92CDB78A
:10102000DEB719821A8280914A018B83809149012F
:101030006AE471E00E948A07882319F0898182603E
:1010400089838981882341F020EE31E04A816981DA
:101050008B810E94B30787C08B81882F90E08230FC
:10106000910509F43EC0833091052CF4009779F086
:101070000197F1F06CC08430910509F453C08430BD
:1010800091050CF442C0059709F459C060C08091E5
:101090004901823021F08981806189835DC060E0EF
:1010A00071E080EE91E00E94210D80E88A8354C0B7
:1010B00080914901823021F08981806189834CC00F
:1010C0000E94A6008093E0010E94AA0B8093E10198
:1010D0000E94BC028093E2011092E30184E08A83C3
:1010E0003BC080914901843021F0898180618983EE
:1010F00033C020914C0190914B0181E0992309F478
:1011000080E0622F0E946F0027C0809149018330E8
:1011100021F08981806189831FC080914B010E94E9
:10112000F1091AC080914901843021F089818061E0
:10113000898312C080914B010E94C5020DC080912D
:101140004901853041F089818061898305C08981A9
:101150008460898301C0000020EE31E04A8169810A
:101160008B810E94B3070F900F900F90DF91CF916A
:1011700008951F920F9200905F000F9211242F93F9
:101180003F934F935F936F937F938F939F93AF930F
:10119000BF93EF93FF93CF93DF93CDB7DEB789EB88
:1011A00090E0FC018081882F90E0803A910509F45D
:1011B00051C0813A91058CF48036910529F1813630
:1011C000910524F4892B09F487C08CC088369105D9
:1011D000D9F08038910541F185C0883B910509F42B
:1011E00059C0893B91053CF4883A9105D9F1803B7F
:1011F0009105C1F177C0803C910509F461C0883C3C
:10120000910509F463C06EC01092490146E950E0AF
:1012100060E070E08AE491E00E941A0D8CEB90E0AF
:1012200025ECFC01208363C08091490191E0980F77
:1012300090934901882F90E0865B9E4F2BEB30E026
:10124000F9012081FC0120838CEB90E025ECFC016E
:1012500020834DC00E940B088CEB90E025ECFC0134
:10126000208345C0109248018BEB90E0209148010B
:1012700031E0320F30934801222F30E0265B3E4FA1
:10128000F9012081FC0120838CEB90E025ECFC012E
:1012900020832DC08BEB90E02091480131E0320F8C
:1012A00030934801222F30E0265B3E4FF901208128
:1012B000FC0120838CEB90E025ECFC01208317C01F
:1012C0008CEB90E025ECFC01208311C08CEB90E0CE
:1012D00025ECFC0120830BC08CEB90E025EDFC019C
:1012E000208305C08CEB90E025ECFC012083DF918E
:1012F000CF91FF91EF91BF91AF919F918F917F918E
:101300006F915F914F913F912F910F9000925F00ED
:101310000F901F901895CF93DF93CDB7DEB780E87D
:1013200090E020E830E0F9012081236CFC0120836B
:1013300081E890E021E830E0F90120812360FC01A0
:10134000208388E890E0FC01118210820000DF9188
:10135000CF910895CF93DF93CDB7DEB786E290E0CB
:10136000FC018081882F90E088709927892B11F0EB
:1013700080E001C081E0DF91CF910895CF93DF93AA
:10138000CDB7DEB70E948B090E94AA09809378022C
:10139000809178028093790210927A0210927C02F6
:1013A00010927B02109276021092770210927D02C8
:1013B0000000DF91CF910895CF93DF93CDB7DEB7D3
:1013C00010927A0210927C0210927B0210927602A6
:1013D0001092770281E080937D020000DF91CF912F
:1013E0000895CF93DF931F92CDB7DEB789830E9414
:1013F000A10B882351F489818093790281E0809345
:101400007A0281E080937D0201C000000F90DF919D
:10141000CF910895CF93DF93CDB7DEB780917D0252
:10142000882F90E0092E000CAA0BBB0B40E050E087
:1014300026E030E0841B950B2817390708F464C1B7
:10144000835C9F4FFC010C940B0D809177028630DA
:1014500051F480ED97E090937C0280937B0282E0D0
:1014600080937D024AC180917702863029F4809171
:101470007702873009F441C180917702882F90E08C
:1014800082309105A1F1833091052CF4009779F019
:101490000197E1F032C18430910509F466C08430CF
:1014A00091050CF44DC0059709F46FC026C181E089
:1014B000809379028AEF90E090937C0280937B0284
:1014C00081E0809377020E94F70B89C080917B02B4
:1014D00090917C02892B09F079C080ED97E0909380
:1014E0007C0280937B0282E0809377026FC08091C0
:1014F0007B0290917C02892B49F487E080937702EC
:1015000086E080937D020E94E10B69C00E94AA09D7
:10151000809378029091780280917902981709F06F
:1015200057C080917802813009F052C080ED97E079
:1015300090937C0280937B0283E0809377024FC07C
:1015400080917B0290917C02892B09F043C08AEF45
:1015500090E090937C0280937B0284E080937702FA
:10156000109279020E940F0C35C080917B029091FD
:101570007C02892B89F580ED97E090937C02809323
:101580007B0285E08093770227C080917B02909157
:101590007C02892B49F487E08093770286E0809370
:1015A0007D020E94E10B1BC00E94AA098093780271
:1015B0009091780280917902981781F486E0809367
:1015C000770210927D020E94E10B08C0000095C0D6
:1015D000000093C0000091C000008FC000008DC0CB
:1015E0000E94AA09809378029091780280917902F2
:1015F000981721F083E080937D0286C08091790264
:10160000813021F482E08093760203C081E08093F0
:10161000760210927A0210927D0276C08091790251
:10162000813031F40E94F70B85E080937D026CC01D
:1016300082E3809328010E94D00B809128010E94B0
:10164000B30B8AE08093290184E080937D025CC023
:1016500080912901882309F052C08091280191E0EE
:10166000980F90932801873888F4809128010E9470
:10167000B30B84E18093290180917B0290917C02DD
:10168000449690937C0280937B0239C085E08093DE
:101690007D0235C080917B0290917C02873D96400F
:1016A00080F50E94AA098093780290917802809137
:1016B0007902981789F40E94E10B809179028130B8
:1016C00021F482E08093760203C081E08093760269
:1016D00010927A0210927D0280917B0290917C029E
:1016E000892B89F40E94E10B83E0809376021092AB
:1016F0007A0286E080937D0206C0000005C00000EB
:1017000003C0000001C0000080917B0290917C0228
:10171000892B49F080917B0290917C0201979093F4
:101720007C0280937B0280912901882339F080918B
:10173000290181508093290101C00000DF91CF91E0
:101740000895CF93DF93CDB7DEB780917A02DF9112
:10175000CF910895CF93DF93CDB7DEB78091760216
:10176000DF91CF910895CF93DF931F92CDB7DEB76E
:1017700089838981823310F482E38983898188385F
:1017800010F087E8898388E890E02981222F30E0F3
:10179000FC013183208300000F90DF91CF910895E9
:1017A000CF93DF93CDB7DEB788E290E028E230E058
:1017B000F90120812460FC0120830000DF91CF919A
:1017C0000895CF93DF93CDB7DEB788E890E0FC01B2
:1017D0001182108288E290E028E230E0F901208155
:1017E0002B7FFC0120830000DF91CF910895CF93E0
:1017F000DF93CDB7DEB788E890E022E330E0FC016C
:101800003183208388E290E028E230E0F9012081F2
:101810002460FC0120830000DF91CF910895CF93D5
:10182000DF93CDB7DEB788E890E027E830E0FC0131
:101830003183208388E290E028E230E0F9012081C2
:101840002460FC0120830000DF91CF910895CF93A5
:10185000DF93CDB7DEB70E94430C0E94CA060E94F8
:10186000BE090E9463000E941D010E94580C0E9444
:101870006B07789464E681E00E946F000E94DC09A7
:101880000E945301FFCFCF93DF93CDB7DEB785E53D
:1018900090E0FC01108281E690E020E8FC012083CA
:1018A00081E690E0FC0110820000DF91CF91089565
:1018B000CF93DF93CDB7DEB784E490E022E0FC0164
:1018C000208385E490E023E0FC01208387E490E01E
:1018D0002CE7FC0120838EE690E022E0FC012083CF
:1018E00080EB90E022E0FC01208381EB90E022E09D
:1018F000FC01208383EB90E020E5FC01208380E75E
:1019000090E022E0FC0120830000DF91CF91089558
:101910001F920F9200905F000F9211242F933F931C
:101920004F935F936F937F938F939F93AF93BF93E7
:10193000EF93FF93CF93DF93CDB7DEB780912A016A
:1019400090912B01A0912C01B0912D01892B8A2B14
:101950008B2B99F080912A0190912B01A0912C0161
:10196000B0912D010197A109B10980932A019093AB
:101970002B01A0932C01B0932D010E940A0A0E9412
:1019800016030E945F010000DF91CF91FF91EF915C
:10199000BF91AF919F918F917F916F915F914F9187
:1019A0003F912F910F9000925F000F901F9018951C
:1019B0001F920F9200905F000F9211242F933F937C
:1019C0004F935F936F937F938F939F93AF93BF9347
:1019D000EF93FF93CF93DF93CDB7DEB70E948504DB
:1019E0000E94F3040E9461050E94AF000000DF9195
:1019F000CF91FF91EF91BF91AF919F918F917F9187
:101A00006F915F914F913F912F910F9000925F00E6
:101A10000F901F901895EE0FFF1F0590F491E02D89
:101A20000994FB01DC0102C001900D92415050402D
:101A3000D8F70895DC0101C06D9341505040E0F7A4
:101A40000895FB01DC0101900D920020E1F708955B
:041A5000F894FFCF38
:101A5400456C7661582032206361726F7573656CD2
:0C1A640020312E302E3000783030000091
:00000001FF
